:1000000008308A0000280000FF00030E8301A100D1
:100010000A08A0008A010408A2007708A300780853
:10002000A4007908A5007A08A600831383128C30F7
:100030008400801E1D288C1A2E2822088400230884
:10004000F7002408F8002508F9002608FA0020081F
:100050008A00210E8300FF0E7F0E09008A110A120A
:10006000E028C3372036EF34203AF237EE33A03899
:10007000F530203AF2346E342037E830F010A02604
:10008000EF342037E8306E10D222D3225410F630ED
:100090002037E8307010EC3069000D300C1E4E280F
:1000A00099000A300C1E5228990008008316031785
:1000B0008C170C140000000083120C087F39031900
:1000C000B02883160313DD00831203170D0883166F
:1000D0000313DE00831203170F0883160313DF00D8
:1000E0005D0883120C1E7228990083165E08831225
:1000F00003178D00831603135F08831203178F0005
:1001000083168C170C140000000083120C0D0E0DCA
:100110007F390319B02883160313DD0083120317F8
:100120000D0883160313DE00831203170F088316CE
:100130000313DF005D0883120C1E9C2899008316B0
:100140005E08831203178D00831603135F08831262
:1001500003178F008D0A03198F0A031356280317FC
:1001600003130800DE308400831300080319C52838
:100170000630F800F701F70BBB28F80BBA287B30E4
:10018000F700F70BC128800BB82808004D2031304C
:1001900003178D0000308F000313562083160610BE
:1001A00001308312860602308316DD00FA30DE004D
:1001B0008312B2208316DD0BD628CF2883120800C5
:1001C0000130A8008C1EE2281A08A900290883160D
:1001D000DC005C082F3C0318F1285C08393C03184C
:1001E00030295C083F3C031930295C08663C031940
:1001F00030295C08253C031930295C082B3C031985
:1002000030295C082D3C031930295C082A3C03196D
:1002100030295C082F3C031930295C085E3C031927
:1002200030295C08213C031930295C080D3C031976
:1002300030295C08683C031930295C08653C0319C7
:1002400030295C08703C031930295C08623C0319B2
:1002500030295C08753C031930298312C6208316A7
:1002600083128C128A110A121D284B346F376710C3
:100270007034E134A0396F10EE33F53C6537203A25
:100280006F102100CC30A0396F10EE33F53C65378C
:10029000203A6F008316C401440842078400831388
:1002A000431883178008031964294408420784000F
:1002B0008313431883170008C50083120C1E5E29A0
:1002C00099008316C40A4C29831208008316450836
:1002D00047068039C900C51F7229C409C509C40A67
:1002E0000319C50AC71F7929C609C709C60A031910
:1002F000C70A1030C800F701FA01C50CC40C031C72
:1003000087294608F7070318FA0A4708FA07FA0C7C
:10031000F70CF90CF80CC80B7D29C91F9429F809B2
:10032000F909F80A0319F90A83120800F701F8011C
:10033000F901FA018316D701D801D901DA0156086B
:100340005504540453040319D5292030DB0003104D
:10035000CF0DD00DD10DD20DD70DD80DD90DDA0D91
:1003600056085A02031DBE2955085902031DBE290D
:1003700054085802031DBE2953085702031CCF29F5
:100380005308D7025408031C540FD8025508031C05
:10039000550FD9025608031C560FDA020314F70D45
:1003A000F80DF90DFA0DDB0BA729D7308400831364
:1003B0008312080004088316C7004608C900031901
:1003C0006D2A4508D2004408D1004308D0004208F5
:1003D000CF00D601D5012030D4008230D3004F08A1
:1003E00003195F2AD700530803195F2AD707031898
:1003F000002A7F30D702031C5F2A03195F2A042AD0
:100400008130D70703185F2A5708F700F801F90170
:10041000FA015008DB00DB175108DA005208D90056
:100420001830D700D801591C2D2A5608FA07031C8A
:100430001F2AF90A031D1F2AF80A0319D81755089D
:10044000F907031C262AF80A0319D8175408D10003
:10045000D1175108F8070318D817D80DF80CF90C64
:10046000FA0CDB0CDA0CD90C0310D70B122A013072
:10047000F70703185F2AF81B442ADB0DFA0DF90D64
:10048000F80DF70303195F2ADB1F552AFA0A031D2B
:10049000552AF90A031D552AF80A031D552AF80C96
:1004A000F90CFA0CF70A03195F2A5008D80054080F
:1004B000D806D81F5D2AF817632AF813632AF701B4
:1004C000F801F901FA017A08C5007908C400780832
:1004D000C3007708C200C90BE1294508D2004408CF
:1004E000D1004308D0004208CF004F08B63CCF00EF
:1004F000FA015008D300D0170310D00CD10CD20C45
:10050000FA0CF90CF80CF70CCF0B7C2AD31F932AAA
:10051000F709F809F909FA09F70A0319F80A03199A
:10052000F90A0319FA0A7A08C5007908C40078089C
:10053000C3007708C200C51FAA2AC703C716C2098D
:10054000C309C409C509C20A0319C30A0319C40AA5
:100550000319C50A3B30CE009A30CD00CA30CC001A
:10056000CB010A30C90046080319C70A4508D20062
:100570004408D1004308D0004208CF004E08D600FE
:100580004D08D5004C08D4004B08D30083129621A7
:1005900000088316C200840A0008C300840A000809
:1005A000C400840A0008C500FD308407F708031D55
:1005B000EC2A460A49020319EC2A47080319EE2AD5
:1005C0000F3949020319E62A03182A2BC71B2A2BC5
:1005D000471BEE2A2030232B2030C705C71EFF2AD9
:1005E000C7124608031DC7037708C7002D308312C2
:1005F0000C1EF82A990083164708F700C701460821
:100600004902031D102B7708C7002E3083120C1EE1
:10061000072B990083164708F7002030C7050030E4
:100620003030C71E232BC7124608031DC7037708A7
:10063000C7002D3083120C1E1B2B99008316470810
:10064000F700C7013030F707770883120C1E262BFE
:10065000990083164E08D2004D08D1004C08D000F6
:100660004B08CF00D601D501D4010A30D300831244
:1006700096217A088316CE007908CD007808CC0040
:100680007708CB00C90BB62A8312080083164908E5
:10069000F801480203184F2B4808F7005B2BF701BD
:1006A0000830CA00C80DF70D490877020318F70093
:1006B000F80DCA0B522B8312080020308316431EFC
:1006C0003030C4004208F700C21F6D2BF709F70A4B
:1006D0007708C2002D30C400C3174208C800643038
:1006E000C9008312462377088316C200303078078A
:1006F000C5004208C8000A30C900831246233030C2
:1007000077078316C70030307807C6004408F70023
:10071000C31D8C2BC31F4311431A992BC31FB42B2A
:100720004319B42B7708C500C318B42B7708C6004B
:10073000B42B30304502031DB42B7708C5002030A0
:10074000C400C31DA72B4311C314C31FC3103030F3
:100750004602031DB42B7708C6002030C500C31D18
:10076000A72BC310C31F4310431DBC2B4408831287
:100770000C1EB82B99008316C31CC42B450883128A
:100780000C1EC02B99008316431CCC2B46088312E9
:100790000C1EC82B99008316470883120C1ECE2B03
:1007A000990008008316CC010408CB004C10831B71
:1007B0004C14C51FE32BCB174B1ECB0AC409C5092C
:1007C000C40A0319C50A450EF038C700C707E23E40
:1007D000C800323ECA0045080F39C807C807CA0713
:1007E000E93EC900C907C907440E0F39C907CA073E
:1007F000C90DCA0DCA09CA0D44080F39CA07C70D69
:100800000730C6000A30CA07C903031C032CC907F6
:10081000C803031C072CC807C703031C0B2CC707FE
:10082000C603031C0F2CC6308400831307304B050E
:100830004B1384034B05031D242C4B1A840A4B1ABB
:10084000242C2030F700412C8407CA3004020319FD
:100850004B170008F700031D352C4B1B352C4B1A8A
:10086000472CCB19352C2030402CCB1F3D2C2D3064
:10087000F70084034B13CB13412CCB154B123030B4
:10088000F707770883120C1E432C99008316840AFD
:100890004B1F252C83120800831645084706803914
:1008A000C900C51F582CC409C509C40A0319C50AC3
:1008B000C71F5F2CC609C709C60A0319C70AF80172
:1008C000F901F701FA014708031D692C46080319CD
:1008D000832C1030C8000310C40DC50DF70DFA0DA0
:1008E00047087A02031D762C46087702031C7F2CEA
:1008F0004608F702031CFA034708FA020314F80D2E
:10090000F90DC80B6B2CC91F8A2CF809F909F80AD4
:100910000319F90A83120800B9010230B800B91F9F
:10092000942CAF1FA02C962CAF1BC62C39082F027D
:10093000031CC62C031DA02C2E0838020318C62C3D
:100940002F088316C50083122E088316C400831255
:1009500039088316C700831238088316C60083122D
:100960004C2477088316C2007A08C300C208031D0E
:10097000C12CC308031DC12C8312B7010130B6007E
:1009800083168312B80A0319B90A8F2C2A0BC92CB3
:10099000CE2C360BDC2CB708031DDC2C35300317AE
:1009A0008D0001308F000313A7018B1BA7178B133A
:1009B0005620A71B8B17E92C423003178D000130FE
:1009C0008F000313A7018B1BA7178B135620A71BA0
:0809D0008B178A150A12CF2FC4
:10100000840183131F308305813083169900A63035
:101010009800903083129800A801A901AA01AB01A1
:10102000AC0183161F149F141F159F1107309C00DD
:1010300020308312BA004330BB004130BC004C303A
:10104000BD004330BE005530BF004C30C0004130C1
:10105000C1005430C2004F30C3005230C4002030B1
:10106000C5005030C6005230C7004F30C80047306E
:10107000C9005230CA004130CB004D30CC00CD0108
:101080002030CE004530CF006E30D0007430D1001B
:101090006530D2007230D3002030D4004630D50005
:1010A0006930D6007230D7007330D8007430D90060
:1010B0002030DA004E30DB007530DC006D30DD00B2
:1010C0006230DE006530DF007230E0003A30E1006F
:1010D0002030E200E3018316A0004530A1006E300D
:1010E000A2007430A3006530A4007230A500203047
:1010F000A6005330A7006530A8006330A9006F3008
:10110000AA006E30AB006430AC002030AD004E3031
:10111000AE007530AF006D30B0006230B1006530A8
:10112000B2007230B3003A30B4002030B500B601DE
:101130008312E4004530E5006E30E6007430E700CD
:101140006530E8007230E9002030EA004F30EB00F3
:101150007030EC006530ED007230EE006130EF0071
:101160007430F0006930F1006F30F2006E30F3003F
:101170003A30F4002030F500F6018316B700523003
:10118000B8006530B9007330BA007530BB006C3000
:10119000BC007430BD002030BE003D30BF002030A8
:1011A000C000C101FF30FB00C0308700FB00813070
:1011B0009900A63098008C16C03083128B04A801C9
:1011C000AC01AA01AB01AD01AF01AE01B101B001AB
:1011D0008A114D208A158A114D208A158316C30164
:1011E0003A30C2008A1183124A218A158A114D2091
:1011F0008A158A114D208A158316C3014E30C2000C
:101200008A1183124A218A15280BCF292908AD009B
:101210002D080D3C031D0E29A801D0292D080C1EF8
:101220000F2999002D082F3C031843292D08393C1C
:10123000031C432930302D02FA01B2007A08B300B2
:101240008316C5010A30C40083122F088316C70015
:1012500083122E088316C6008A11831266218A150E
:1012600079088316C3007808C200831232088316F7
:1012700042078312AE00831643088312AF0033087F
:101280000318330FAF072D082D3C031D58290130DB
:10129000AA00AE08031D4F29AF0803195829A7015A
:1012A0008B1BA7178B138A11C6208A15A71B8B17B8
:1012B000A8012D08683C031D8C298A114D208A1530
:1012C0008316C301B730C2008A1183124A218A15DE
:1012D000893084000A308316C500D730C4005330EB
:1012E000C3008130C2000230C6008A118312DA21A5
:1012F0008A1565300C1E7A2999002D300C1E7E2926
:10130000990022308316C2001F30C3008A11831255
:101310005D238A15DF28CF292D08703C031DAE29D7
:101320008A114D208A158316C301B730C2008A1175
:1013300083124A218A1589308400C3308316C50080
:10134000F530C4004830C3008030C2000230C6000F
:101350008A118312DA218A15DF28CF292D08653CEE
:10136000031DCF298A114D208A158316C301B7307A
:10137000C2008A1183124A218A15893084007B3089
:101380008316C5001430C4002E30C3008030C20064
:101390000230C6008A118312DA218A15DF28042957
:1013A0008A114D208A158316C3016430C2008A1148
:1013B00083124A218A15280B062A2908AD002D0818
:1013C0000D3C031DE529A801072A2D080C1EE6295E
:1013D0009900FA012D08B4007A08B500A801340874
:1013E000213C031DF629B5080319042A3408663C7C
:1013F000031DFD29B5080319042A34083F3C031DC9
:10140000062AB508031D062A0130AC00DB298A1123
:101410004D208A15AC08031D6B2A8316C301A0302A
:10142000C2008A1183124A218A15280B6A2A2908C8
:10143000AD002D080D3C031D1F2AA8016B2A2D08A5
:101440000C1E202A99002D082F3C0318542A2D0821
:10145000393C031C542A30302D02FA01B2007A08BC
:10146000B3008316C5010A30C40083123108831605
:10147000C700831230088316C6008A1183126621C2
:101480008A1579088316C3007808C20083123208CF
:10149000831642078312B000831643088312B100FB
:1014A00033080318330FB1072D082D3C031D692A9B
:1014B0000130AB00B008031D602AB1080319692A86
:1014C000A7018B1BA7178B138A11C6208A15A71B90
:1014D0008B17A801152A8A114D208A158316C3017E
:1014E000B730C2008A1183124A218A153408F700E6
:1014F0003508FA007A08031D812A2B307702031978
:10150000C82A7A08031D882A2D3077020319462B32
:101510007A08031D8F2A2A3077020319C42B7A0810
:10152000031D962A2F30770203195E2C7A08031DBB
:101530009D2A5E30770203194D2D7A08031DA42AD7
:10154000213077020319F02D7A08031DAB2A62308F
:1015500077020319472E7A08031DB22A75307702E5
:101560000319B02E7A08031DB92A25307702031912
:101570001A2F7A08031DC02A6630770203194B2FF1
:101580007A08031DC72A3F3077020319C02FC62FE0
:101590002A0B0A2B2B0BED2A2D300C1ECD2A99007D
:1015A00030082E078316C20083122F088316C3004B
:1015B000831231080318310FDE2AE12A8316C3078C
:1015C00083121030840083164308C5004208C4000B
:1015D0008A118312D2238A15092B2E083002831612
:1015E000C200831231088316C30083122F08031C24
:1015F0002F0FFB2AFE2A8316C302831210308400A9
:1016000083164308C5004208C4008A118312D223FE
:101610008A15452B2B0B292B30082E028316C2006E
:1016200083122F088316C30083123108031C310F65
:101630001A2B1D2B8316C3028312103084008316CD
:101640004308C5004208C4008A118312D2238A15B8
:10165000452B30082E078316C20083122F088316ED
:10166000C300831231080318310F372B3A2B83162E
:10167000C30783121030840083164308C500420854
:10168000C4008A118312D2238A15CF2F2A0B882BEC
:101690002B0B672B2E0830028316C20083123108F1
:1016A0008316C30083122F08031C2F0F582B5B2BAC
:1016B0008316C30283121030840083164308C500CA
:1016C0004208C4008A118312D2238A15872B2D3039
:1016D0000C1E682B99002E0830078316C200831257
:1016E00031088316C30083122F0803182F0F792B9C
:1016F0007C2B8316C30783121030840083164308A3
:10170000C5004208C4008A118312D2238A15C32B54
:101710002B0BA72B30082E078316C20083122F082D
:101720008316C300831231080318310F982B9B2BAB
:101730008316C30783121030840083164308C50044
:101740004208C4008A118312D2238A15C32B3008A1
:101750002E028316C20083122F088316C300831241
:101760003108031C310FB52BB82B8316C30283122B
:101770001030840083164308C5004208C4008A1153
:101780008312D2238A15CF2F2A0B122C2B0BEB2B73
:101790002F088316C50083122E088316C4008312F7
:1017A00031088316C700831230088316C6008A11D9
:1017B000831266218A1579088316C3007808C2004F
:1017C000103084004308C5004208C4008A11831207
:1017D000D2238A15112C2D300C1EEC2B99003108C8
:1017E0008316C500831230088316C40083122F08A5
:1017F0008316C70083122E088316C6008A1183122F
:1018000066218A1579088316C3007808C200103053
:1018100084004308C5004208C4008A118312D22301
:101820008A155D2C2B0B3B2C2D300C1E152C990092
:101830002F088316C50083122E088316C400831256
:1018400031088316C700831230088316C6008A1138
:10185000831266218A1579088316C3007808C200AE
:10186000103084004308C5004208C4008A11831266
:10187000D2238A155D2C2F088316C50083122E08EB
:101880008316C400831231088316C7008312300800
:101890008316C6008A11831266218A157908831679
:1018A000C3007808C200103084004308C500420815
:1018B000C4008A118312D2238A15CF2FB008031DCA
:1018C0006D2CB108031D6D2CA7018B1BA7178B1363
:1018D0008A11C6208A15A71B8B172B082A02031909
:1018E000752C2D300C1E722C99002F088316C50004
:1018F00083122E088316C400831231088316C70092
:10190000831230088316C6008A1183124C248A156C
:101910007908B7007808B6001030840037088316BD
:10192000C500831236088316C4008A118312D2239D
:101930008A152E300C1E9A2C990037088316C50084
:10194000831236088316C400831231088316C70039
:10195000831230088316C6008A11831266218A1505
:101960007908FA0078082E02F7007A08031C7A0F2B
:10197000BB2C2F08BC2C2F02FA0077088316C2005C
:101980007A08C300C5010A30C4004308C7004208F2
:10199000C6008A11831266218A1579088316C3004E
:1019A0007808C2004308C5004208C4008312310809
:1019B0008316C700831230088316C6008A1183126B
:1019C0004C248A1579088316C3007808C200C2081F
:1019D000031DF32CC308031DF32C303083120C1E9F
:1019E000EF2C99008316831237088316C5008312E3
:1019F00036088316C400831231088316C700831289
:101A000030088316C6008A11831266218A15790868
:101A1000FA0078082E02F7007908031C790F122DBE
:101A20002F08132D2F02FA0077088316C2007A08B8
:101A3000C300C5016430C4004308C7004208C600A3
:101A40008A11831266218A157908AF007808AE00E2
:101A50002F088316C50083122E088316C400831234
:101A600031088316C700831230088316C6008A1116
:101A700083124C248A157908B7007808B600103014
:101A8000840037088316C500831236088316C40005
:101A90008A118312D2238A15CF2F2A0B712D310878
:101AA0008316C500831230088316C400C7010230B4
:101AB000C6008A1183124C248A1577088316C20047
:101AC0007A08C300420B652D672D8312712DC30860
:101AD00003196C2D8312712D2D3083120C1E6E2D67
:101AE0009900B7010130B600B901B800B91F7B2DCC
:101AF000B11F872D7D2DB11BA22D39083102031C8A
:101B0000A22D031D872D38083002031CA22D370893
:101B10008316C500831236088316C40083122F086B
:101B20008316C70083122E088316C6008A118312FB
:101B300066218A157908B7007808B600B80A031933
:101B4000B90A762DAB08031DB32D10308400370879
:101B50008316C500831236088316C4008A118312C7
:101B6000D2238A15EF2D360BC62DB708031DC62DBF
:101B70001030840037088316C50083123608831698
:101B8000C4008A118312D2238A15EF2D8316C50152
:101B90006430C400831237088316C70083123608E6
:101BA0008316C6008A1183124C248A157908B7005F
:101BB0007808B60030300C1EDB2D99002E300C1E3C
:101BC000DF2D99001030840037088316C50083127A
:101BD00036088316C4008A118312D2238A15CF2FA8
:101BE0002A0BFB2DA7018B1BA7178B138A11C6206D
:101BF0008A15A71B8B172F08B7002E08B600B9014E
:101C00000130B800B91F072EAF1F132E092EAF1BCE
:101C1000392E39082F02031C392E031D132E2E08CE
:101C200038020318392E38082E02F7002F08FA0060
:101C30003908031C390FFA0277088316C2007A08A4
:101C4000C300831237088316C50083123608831633
:101C5000C4004308C7004208C6008A1183126621E7
:101C60008A157908B7007808B600B80A0319B90AC6
:101C7000022E1030840037088316C5008312360800
:101C80008316C4008A118312D2238A15CF2FB9017B
:101C90000130B8003808F7003908F800F901FA01F6
:101CA000F81F542EF903FA03FA1B5D2EFA08031DE0
:101CB000AF2E7908003C031CAF2E39088316C500EF
:101CC000831238088316C40083122F088316C700B6
:101CD00083122E088316C6008A1183124C248A159B
:101CE00077088316C2007A08C300C208031DAA2E13
:101CF000C308031DAA2E831239088316C500831258
:101D000038088316C400831231088316C700831273
:101D100030088316C6008A1183124C248A1577086E
:101D20008316C2007A08C300C208031DAA2EC30886
:101D3000031DAA2E10308400831239088316C500B3
:101D4000831238088316C4008A118312D2238A159D
:101D5000AF2E83168312B80A0319B90A4A2ECF2F61
:101D6000B9010130B800B91FB82EAF1FC42EBA2E6A
:101D7000AF1B0C2F39082F02031C0C2F031DC42E80
:101D800038082E02031C0C2F2F088316C50083125F
:101D90002E088316C400831239088316C7008312E5
:101DA00038088316C6008A1183124C248A157708D6
:101DB0008316C2007A08C300C208031D072FC30898
:101DC000031D072F831231088316C50083123008C4
:101DD0008316C400831239088316C700831238089B
:101DE0008316C6008A1183124C248A15770883163D
:101DF000C2007A08C300C208031D072FC308031DD1
:101E0000072F83123908B7003808B60083168312EB
:101E1000B80A0319B90AB32E1030840037088316A4
:101E2000C500831236088316C4008A118312D22398
:101E30008A15CF2F2A0B1D2F1F2F2B0B282FA70101
:101E40008B1BA7178B138A11C6208A15A71B8B170C
:101E50002F088316C50083122E088316C400831230
:101E600031088316C700831230088316C6008A1112
:101E700083124C248A1577088316C2007A08C3009F
:101E8000103084004308C5004208C4008A11831240
:101E9000D2238A15CF2F2A0B572FFF308316C2006B
:101EA0001F30C3008A1183125D238A155B2F3130E6
:101EB0000C1E582F9900B9010230B800B91F632FCA
:101EC000AF1F6F2F652FAF1BBF2F39082F02031CC9
:101ED000BF2F031D6F2F38082E02031CBF2F2F08A2
:101EE0008316C50083122E088316C4008312390896
:101EF0008316C700831238088316C6008A1183121E
:101F00004C248A1577088316C2007A08C300C208D9
:101F1000031DBA2FC308031DBA2F83122F0883167F
:101F2000C50083122E088316C40083123908831655
:101F3000C700831238088316C6008A1183124C2406
:101F40008A157908AF007808AE0078300C1EA62FED
:101F500099001030840039088316C50083123808B0
:101F60008316C4008A118312D2238A15B901013065
:101F7000B80083168312B80A0319B90A5E2FCF2F4F
:101F8000B701B6018A118C2C8A15CF2FA7018B1BA4
:101F9000A7178B138A11C6208A15A71B8B17DF285A
:021FA0006300DC
:02400E00723FFF
:00000001FF
;PIC16F877A
;CRC=7FC1  CREATED="13-Dec-19 10:01"
